{
  "_format": "hh-sol-artifact-1",
  "contractName": "RefugeeIdentity",
  "sourceName": "contracts/RefugeeIdentity.sol",
  "abi": [
    {
      "anonymous": false,
      "inputs": [
        {
          "indexed": true,
          "internalType": "address",
          "name": "previousOwner",
          "type": "address"
        },
        {
          "indexed": true,
          "internalType": "address",
          "name": "newOwner",
          "type": "address"
        }
      ],
      "name": "OwnershipTransferred",
      "type": "event"
    },
    {
      "anonymous": false,
      "inputs": [
        {
          "indexed": false,
          "internalType": "string",
          "name": "id",
          "type": "string"
        },
        {
          "indexed": false,
          "internalType": "string",
          "name": "name",
          "type": "string"
        }
      ],
      "name": "RefugeeRegistered",
      "type": "event"
    },
    {
      "inputs": [
        {
          "internalType": "string",
          "name": "_id",
          "type": "string"
        }
      ],
      "name": "getRefugee",
      "outputs": [
        {
          "internalType": "string",
          "name": "name",
          "type": "string"
        },
        {
          "internalType": "string",
          "name": "countryOfOrigin",
          "type": "string"
        },
        {
          "internalType": "uint256",
          "name": "dateOfBirth",
          "type": "uint256"
        }
      ],
      "stateMutability": "view",
      "type": "function"
    },
    {
      "inputs": [],
      "name": "owner",
      "outputs": [
        {
          "internalType": "address",
          "name": "",
          "type": "address"
        }
      ],
      "stateMutability": "view",
      "type": "function"
    },
    {
      "inputs": [
        {
          "internalType": "string",
          "name": "_id",
          "type": "string"
        },
        {
          "internalType": "string",
          "name": "_name",
          "type": "string"
        },
        {
          "internalType": "string",
          "name": "_countryOfOrigin",
          "type": "string"
        },
        {
          "internalType": "uint256",
          "name": "_dateOfBirth",
          "type": "uint256"
        }
      ],
      "name": "registerRefugee",
      "outputs": [],
      "stateMutability": "nonpayable",
      "type": "function"
    },
    {
      "inputs": [],
      "name": "renounceOwnership",
      "outputs": [],
      "stateMutability": "nonpayable",
      "type": "function"
    },
    {
      "inputs": [
        {
          "internalType": "address",
          "name": "newOwner",
          "type": "address"
        }
      ],
      "name": "transferOwnership",
      "outputs": [],
      "stateMutability": "nonpayable",
      "type": "function"
    }
  ],
  "bytecode": "0x608060405234801561001057600080fd5b5061002d61002261003260201b60201c565b61003a60201b60201c565b6100fe565b600033905090565b60008060009054906101000a900473ffffffffffffffffffffffffffffffffffffffff169050816000806101000a81548173ffffffffffffffffffffffffffffffffffffffff021916908373ffffffffffffffffffffffffffffffffffffffff1602179055508173ffffffffffffffffffffffffffffffffffffffff168173ffffffffffffffffffffffffffffffffffffffff167f8be0079c531659141344cd1fd0a4f28419497f9722a3daafe3b4186f6b6457e060405160405180910390a35050565b61108d8061010d6000396000f3fe608060405234801561001057600080fd5b50600436106100575760003560e01c8063715018a61461005c5780637fb4bb40146100665780638da5cb5b14610082578063ad9f0ba4146100a0578063f2fde38b146100d2575b600080fd5b6100646100ee565b005b610080600480360381019061007b919061088d565b610102565b005b61008a61026f565b6040516100979190610989565b60405180910390f35b6100ba60048036038101906100b591906109a4565b610298565b6040516100c993929190610a7b565b60405180910390f35b6100ec60048036038101906100e79190610aec565b610530565b005b6100f66105b3565b6101006000610631565b565b61010a6105b3565b60018460405161011a9190610b55565b908152602001604051809103902060040160009054906101000a900460ff1615610179576040517f08c379a000000000000000000000000000000000000000000000000000000000815260040161017090610bb8565b60405180910390fd5b6040518060a00160405280858152602001848152602001838152602001828152602001600115158152506001856040516101b39190610b55565b908152602001604051809103902060008201518160000190816101d69190610de4565b5060208201518160010190816101ec9190610de4565b5060408201518160020190816102029190610de4565b506060820151816003015560808201518160040160006101000a81548160ff0219169083151502179055509050507fc506b16cf5ce3e0c94f751362b6db43c7fc3932f1c468d1aaa37861d853b2e968484604051610261929190610eb6565b60405180910390a150505050565b60008060009054906101000a900473ffffffffffffffffffffffffffffffffffffffff16905090565b60608060006001846040516102ad9190610b55565b908152602001604051809103902060040160009054906101000a900460ff1661030b576040517f08c379a000000000000000000000000000000000000000000000000000000000815260040161030290610f39565b60405180910390fd5b600060018560405161031d9190610b55565b90815260200160405180910390206040518060a001604052908160008201805461034690610c07565b80601f016020809104026020016040519081016040528092919081815260200182805461037290610c07565b80156103bf5780601f10610394576101008083540402835291602001916103bf565b820191906000526020600020905b8154815290600101906020018083116103a257829003601f168201915b505050505081526020016001820180546103d890610c07565b80601f016020809104026020016040519081016040528092919081815260200182805461040490610c07565b80156104515780601f1061042657610100808354040283529160200191610451565b820191906000526020600020905b81548152906001019060200180831161043457829003601f168201915b5050505050815260200160028201805461046a90610c07565b80601f016020809104026020016040519081016040528092919081815260200182805461049690610c07565b80156104e35780601f106104b8576101008083540402835291602001916104e3565b820191906000526020600020905b8154815290600101906020018083116104c657829003601f168201915b50505050508152602001600382015481526020016004820160009054906101000a900460ff1615151515815250509050806020015181604001518260600151935093509350509193909250565b6105386105b3565b600073ffffffffffffffffffffffffffffffffffffffff168173ffffffffffffffffffffffffffffffffffffffff16036105a7576040517f08c379a000000000000000000000000000000000000000000000000000000000815260040161059e90610fcb565b60405180910390fd5b6105b081610631565b50565b6105bb6106f5565b73ffffffffffffffffffffffffffffffffffffffff166105d961026f565b73ffffffffffffffffffffffffffffffffffffffff161461062f576040517f08c379a000000000000000000000000000000000000000000000000000000000815260040161062690611037565b60405180910390fd5b565b60008060009054906101000a900473ffffffffffffffffffffffffffffffffffffffff169050816000806101000a81548173ffffffffffffffffffffffffffffffffffffffff021916908373ffffffffffffffffffffffffffffffffffffffff1602179055508173ffffffffffffffffffffffffffffffffffffffff168173ffffffffffffffffffffffffffffffffffffffff167f8be0079c531659141344cd1fd0a4f28419497f9722a3daafe3b4186f6b6457e060405160405180910390a35050565b600033905090565b6000604051905090565b600080fd5b600080fd5b600080fd5b600080fd5b6000601f19601f8301169050919050565b7f4e487b7100000000000000000000000000000000000000000000000000000000600052604160045260246000fd5b6107648261071b565b810181811067ffffffffffffffff821117156107835761078261072c565b5b80604052505050565b60006107966106fd565b90506107a2828261075b565b919050565b600067ffffffffffffffff8211156107c2576107c161072c565b5b6107cb8261071b565b9050602081019050919050565b82818337600083830152505050565b60006107fa6107f5846107a7565b61078c565b90508281526020810184848401111561081657610815610716565b5b6108218482856107d8565b509392505050565b600082601f83011261083e5761083d610711565b5b813561084e8482602086016107e7565b91505092915050565b6000819050919050565b61086a81610857565b811461087557600080fd5b50565b60008135905061088781610861565b92915050565b600080600080608085870312156108a7576108a6610707565b5b600085013567ffffffffffffffff8111156108c5576108c461070c565b5b6108d187828801610829565b945050602085013567ffffffffffffffff8111156108f2576108f161070c565b5b6108fe87828801610829565b935050604085013567ffffffffffffffff81111561091f5761091e61070c565b5b61092b87828801610829565b925050606061093c87828801610878565b91505092959194509250565b600073ffffffffffffffffffffffffffffffffffffffff82169050919050565b600061097382610948565b9050919050565b61098381610968565b82525050565b600060208201905061099e600083018461097a565b92915050565b6000602082840312156109ba576109b9610707565b5b600082013567ffffffffffffffff8111156109d8576109d761070c565b5b6109e484828501610829565b91505092915050565b600081519050919050565b600082825260208201905092915050565b60005b83811015610a27578082015181840152602081019050610a0c565b60008484015250505050565b6000610a3e826109ed565b610a4881856109f8565b9350610a58818560208601610a09565b610a618161071b565b840191505092915050565b610a7581610857565b82525050565b60006060820190508181036000830152610a958186610a33565b90508181036020830152610aa98185610a33565b9050610ab86040830184610a6c565b949350505050565b610ac981610968565b8114610ad457600080fd5b50565b600081359050610ae681610ac0565b92915050565b600060208284031215610b0257610b01610707565b5b6000610b1084828501610ad7565b91505092915050565b600081905092915050565b6000610b2f826109ed565b610b398185610b19565b9350610b49818560208601610a09565b80840191505092915050565b6000610b618284610b24565b915081905092915050565b7f5265667567656520616c72656164792072656769737465726564000000000000600082015250565b6000610ba2601a836109f8565b9150610bad82610b6c565b602082019050919050565b60006020820190508181036000830152610bd181610b95565b9050919050565b7f4e487b7100000000000000000000000000000000000000000000000000000000600052602260045260246000fd5b60006002820490506001821680610c1f57607f821691505b602082108103610c3257610c31610bd8565b5b50919050565b60008190508160005260206000209050919050565b60006020601f8301049050919050565b600082821b905092915050565b600060088302610c9a7fffffffffffffffffffffffffffffffffffffffffffffffffffffffffffffffff82610c5d565b610ca48683610c5d565b95508019841693508086168417925050509392505050565b6000819050919050565b6000610ce1610cdc610cd784610857565b610cbc565b610857565b9050919050565b6000819050919050565b610cfb83610cc6565b610d0f610d0782610ce8565b848454610c6a565b825550505050565b600090565b610d24610d17565b610d2f818484610cf2565b505050565b5b81811015610d5357610d48600082610d1c565b600181019050610d35565b5050565b601f821115610d9857610d6981610c38565b610d7284610c4d565b81016020851015610d81578190505b610d95610d8d85610c4d565b830182610d34565b50505b505050565b600082821c905092915050565b6000610dbb60001984600802610d9d565b1980831691505092915050565b6000610dd48383610daa565b9150826002028217905092915050565b610ded826109ed565b67ffffffffffffffff811115610e0657610e0561072c565b5b610e108254610c07565b610e1b828285610d57565b600060209050601f831160018114610e4e5760008415610e3c578287015190505b610e468582610dc8565b865550610eae565b601f198416610e5c86610c38565b60005b82811015610e8457848901518255600182019150602085019450602081019050610e5f565b86831015610ea15784890151610e9d601f891682610daa565b8355505b6001600288020188555050505b505050505050565b60006040820190508181036000830152610ed08185610a33565b90508181036020830152610ee48184610a33565b90509392505050565b7f52656675676565206e6f7420666f756e64000000000000000000000000000000600082015250565b6000610f236011836109f8565b9150610f2e82610eed565b602082019050919050565b60006020820190508181036000830152610f5281610f16565b9050919050565b7f4f776e61626c653a206e6577206f776e657220697320746865207a65726f206160008201527f6464726573730000000000000000000000000000000000000000000000000000602082015250565b6000610fb56026836109f8565b9150610fc082610f59565b604082019050919050565b60006020820190508181036000830152610fe481610fa8565b9050919050565b7f4f776e61626c653a2063616c6c6572206973206e6f7420746865206f776e6572600082015250565b60006110216020836109f8565b915061102c82610feb565b602082019050919050565b6000602082019050818103600083015261105081611014565b905091905056fea2646970667358221220cbc54c3c27b529ee2343686b79ab25b7b077ca38162850ec35cb0c083e007fd264736f6c634300081b0033",
  "linkReferences": {},
  "deployedLinkReferences": {}
}