{
  "_format": "hh-sol-artifact-1",
  "contractName": "RefugeeIdentity",
  "sourceName": "contracts/RefugeeIdentity.sol",
  "abi": [
    {
      "inputs": [
        {
          "internalType": "address",
          "name": "initialOwner",
          "type": "address"
        }
      ],
      "stateMutability": "nonpayable",
      "type": "constructor"
    },
    {
      "inputs": [
        {
          "internalType": "address",
          "name": "owner",
          "type": "address"
        }
      ],
      "name": "OwnableInvalidOwner",
      "type": "error"
    },
    {
      "inputs": [
        {
          "internalType": "address",
          "name": "account",
          "type": "address"
        }
      ],
      "name": "OwnableUnauthorizedAccount",
      "type": "error"
    },
    {
      "anonymous": false,
      "inputs": [
        {
          "indexed": true,
          "internalType": "address",
          "name": "previousOwner",
          "type": "address"
        },
        {
          "indexed": true,
          "internalType": "address",
          "name": "newOwner",
          "type": "address"
        }
      ],
      "name": "OwnershipTransferred",
      "type": "event"
    },
    {
      "anonymous": false,
      "inputs": [
        {
          "indexed": false,
          "internalType": "string",
          "name": "id",
          "type": "string"
        },
        {
          "indexed": false,
          "internalType": "string",
          "name": "name",
          "type": "string"
        },
        {
          "indexed": false,
          "internalType": "address",
          "name": "registeredBy",
          "type": "address"
        }
      ],
      "name": "RefugeeRegistered",
      "type": "event"
    },
    {
      "inputs": [
        {
          "internalType": "string",
          "name": "_id",
          "type": "string"
        }
      ],
      "name": "getRefugee",
      "outputs": [
        {
          "internalType": "string",
          "name": "name",
          "type": "string"
        },
        {
          "internalType": "string",
          "name": "countryOfOrigin",
          "type": "string"
        },
        {
          "internalType": "uint256",
          "name": "dateOfBirth",
          "type": "uint256"
        },
        {
          "internalType": "address",
          "name": "registeredBy",
          "type": "address"
        }
      ],
      "stateMutability": "view",
      "type": "function"
    },
    {
      "inputs": [],
      "name": "owner",
      "outputs": [
        {
          "internalType": "address",
          "name": "",
          "type": "address"
        }
      ],
      "stateMutability": "view",
      "type": "function"
    },
    {
      "inputs": [
        {
          "internalType": "string",
          "name": "_id",
          "type": "string"
        },
        {
          "internalType": "string",
          "name": "_name",
          "type": "string"
        },
        {
          "internalType": "string",
          "name": "_countryOfOrigin",
          "type": "string"
        },
        {
          "internalType": "uint256",
          "name": "_dateOfBirth",
          "type": "uint256"
        }
      ],
      "name": "registerRefugee",
      "outputs": [],
      "stateMutability": "nonpayable",
      "type": "function"
    },
    {
      "inputs": [],
      "name": "renounceOwnership",
      "outputs": [],
      "stateMutability": "nonpayable",
      "type": "function"
    },
    {
      "inputs": [
        {
          "internalType": "address",
          "name": "newOwner",
          "type": "address"
        }
      ],
      "name": "transferOwnership",
      "outputs": [],
      "stateMutability": "nonpayable",
      "type": "function"
    }
  ],
  "bytecode": "0x608060405234801561001057600080fd5b506040516115ab3803806115ab833981810160405281019061003291906101e2565b80600073ffffffffffffffffffffffffffffffffffffffff168173ffffffffffffffffffffffffffffffffffffffff16036100a55760006040517f1e4fbdf700000000000000000000000000000000000000000000000000000000815260040161009c919061021e565b60405180910390fd5b6100b4816100bb60201b60201c565b5050610239565b60008060009054906101000a900473ffffffffffffffffffffffffffffffffffffffff169050816000806101000a81548173ffffffffffffffffffffffffffffffffffffffff021916908373ffffffffffffffffffffffffffffffffffffffff1602179055508173ffffffffffffffffffffffffffffffffffffffff168173ffffffffffffffffffffffffffffffffffffffff167f8be0079c531659141344cd1fd0a4f28419497f9722a3daafe3b4186f6b6457e060405160405180910390a35050565b600080fd5b600073ffffffffffffffffffffffffffffffffffffffff82169050919050565b60006101af82610184565b9050919050565b6101bf816101a4565b81146101ca57600080fd5b50565b6000815190506101dc816101b6565b92915050565b6000602082840312156101f8576101f761017f565b5b6000610206848285016101cd565b91505092915050565b610218816101a4565b82525050565b6000602082019050610233600083018461020f565b92915050565b611363806102486000396000f3fe608060405234801561001057600080fd5b50600436106100575760003560e01c8063715018a61461005c5780637fb4bb40146100665780638da5cb5b14610082578063ad9f0ba4146100a0578063f2fde38b146100d3575b600080fd5b6100646100ef565b005b610080600480360381019061007b9190610a6f565b610103565b005b61008a6103e7565b6040516100979190610b6b565b60405180910390f35b6100ba60048036038101906100b59190610b86565b610410565b6040516100ca9493929190610c5d565b60405180910390f35b6100ed60048036038101906100e89190610cdc565b610706565b005b6100f761078c565b6101016000610813565b565b6001846040516101139190610d45565b908152602001604051809103902060040160009054906101000a900460ff1615610172576040517f08c379a000000000000000000000000000000000000000000000000000000000815260040161016990610da8565b60405180910390fd5b60008451116101b6576040517f08c379a00000000000000000000000000000000000000000000000000000000081526004016101ad90610e14565b60405180910390fd5b60008351116101fa576040517f08c379a00000000000000000000000000000000000000000000000000000000081526004016101f190610e80565b60405180910390fd5b600082511161023e576040517f08c379a000000000000000000000000000000000000000000000000000000000815260040161023590610f12565b60405180910390fd5b60008111801561024d57504281105b61028c576040517f08c379a000000000000000000000000000000000000000000000000000000000815260040161028390610f7e565b60405180910390fd5b6040518060c001604052808581526020018481526020018381526020018281526020016001151581526020013373ffffffffffffffffffffffffffffffffffffffff168152506001856040516102e29190610d45565b9081526020016040518091039020600082015181600001908161030591906111aa565b50602082015181600101908161031b91906111aa565b50604082015181600201908161033191906111aa565b506060820151816003015560808201518160040160006101000a81548160ff02191690831515021790555060a08201518160040160016101000a81548173ffffffffffffffffffffffffffffffffffffffff021916908373ffffffffffffffffffffffffffffffffffffffff1602179055509050507f35ee7356f1c33a6addafe7f64a57427373e7db1c7f22f19f8e7c111f6a38c98e8484336040516103d99392919061127c565b60405180910390a150505050565b60008060009054906101000a900473ffffffffffffffffffffffffffffffffffffffff16905090565b6060806000806001856040516104269190610d45565b908152602001604051809103902060040160009054906101000a900460ff16610484576040517f08c379a000000000000000000000000000000000000000000000000000000000815260040161047b9061130d565b60405180910390fd5b60006001866040516104969190610d45565b90815260200160405180910390206040518060c00160405290816000820180546104bf90610fcd565b80601f01602080910402602001604051908101604052809291908181526020018280546104eb90610fcd565b80156105385780601f1061050d57610100808354040283529160200191610538565b820191906000526020600020905b81548152906001019060200180831161051b57829003601f168201915b5050505050815260200160018201805461055190610fcd565b80601f016020809104026020016040519081016040528092919081815260200182805461057d90610fcd565b80156105ca5780601f1061059f576101008083540402835291602001916105ca565b820191906000526020600020905b8154815290600101906020018083116105ad57829003601f168201915b505050505081526020016002820180546105e390610fcd565b80601f016020809104026020016040519081016040528092919081815260200182805461060f90610fcd565b801561065c5780601f106106315761010080835404028352916020019161065c565b820191906000526020600020905b81548152906001019060200180831161063f57829003601f168201915b50505050508152602001600382015481526020016004820160009054906101000a900460ff161515151581526020016004820160019054906101000a900473ffffffffffffffffffffffffffffffffffffffff1673ffffffffffffffffffffffffffffffffffffffff1673ffffffffffffffffffffffffffffffffffffffff168152505090508060200151816040015182606001518360a001519450945094509450509193509193565b61070e61078c565b600073ffffffffffffffffffffffffffffffffffffffff168173ffffffffffffffffffffffffffffffffffffffff16036107805760006040517f1e4fbdf70000000000000000000000000000000000000000000000000000000081526004016107779190610b6b565b60405180910390fd5b61078981610813565b50565b6107946108d7565b73ffffffffffffffffffffffffffffffffffffffff166107b26103e7565b73ffffffffffffffffffffffffffffffffffffffff1614610811576107d56108d7565b6040517f118cdaa70000000000000000000000000000000000000000000000000000000081526004016108089190610b6b565b60405180910390fd5b565b60008060009054906101000a900473ffffffffffffffffffffffffffffffffffffffff169050816000806101000a81548173ffffffffffffffffffffffffffffffffffffffff021916908373ffffffffffffffffffffffffffffffffffffffff1602179055508173ffffffffffffffffffffffffffffffffffffffff168173ffffffffffffffffffffffffffffffffffffffff167f8be0079c531659141344cd1fd0a4f28419497f9722a3daafe3b4186f6b6457e060405160405180910390a35050565b600033905090565b6000604051905090565b600080fd5b600080fd5b600080fd5b600080fd5b6000601f19601f8301169050919050565b7f4e487b7100000000000000000000000000000000000000000000000000000000600052604160045260246000fd5b610946826108fd565b810181811067ffffffffffffffff821117156109655761096461090e565b5b80604052505050565b60006109786108df565b9050610984828261093d565b919050565b600067ffffffffffffffff8211156109a4576109a361090e565b5b6109ad826108fd565b9050602081019050919050565b82818337600083830152505050565b60006109dc6109d784610989565b61096e565b9050828152602081018484840111156109f8576109f76108f8565b5b610a038482856109ba565b509392505050565b600082601f830112610a2057610a1f6108f3565b5b8135610a308482602086016109c9565b91505092915050565b6000819050919050565b610a4c81610a39565b8114610a5757600080fd5b50565b600081359050610a6981610a43565b92915050565b60008060008060808587031215610a8957610a886108e9565b5b600085013567ffffffffffffffff811115610aa757610aa66108ee565b5b610ab387828801610a0b565b945050602085013567ffffffffffffffff811115610ad457610ad36108ee565b5b610ae087828801610a0b565b935050604085013567ffffffffffffffff811115610b0157610b006108ee565b5b610b0d87828801610a0b565b9250506060610b1e87828801610a5a565b91505092959194509250565b600073ffffffffffffffffffffffffffffffffffffffff82169050919050565b6000610b5582610b2a565b9050919050565b610b6581610b4a565b82525050565b6000602082019050610b806000830184610b5c565b92915050565b600060208284031215610b9c57610b9b6108e9565b5b600082013567ffffffffffffffff811115610bba57610bb96108ee565b5b610bc684828501610a0b565b91505092915050565b600081519050919050565b600082825260208201905092915050565b60005b83811015610c09578082015181840152602081019050610bee565b60008484015250505050565b6000610c2082610bcf565b610c2a8185610bda565b9350610c3a818560208601610beb565b610c43816108fd565b840191505092915050565b610c5781610a39565b82525050565b60006080820190508181036000830152610c778187610c15565b90508181036020830152610c8b8186610c15565b9050610c9a6040830185610c4e565b610ca76060830184610b5c565b95945050505050565b610cb981610b4a565b8114610cc457600080fd5b50565b600081359050610cd681610cb0565b92915050565b600060208284031215610cf257610cf16108e9565b5b6000610d0084828501610cc7565b91505092915050565b600081905092915050565b6000610d1f82610bcf565b610d298185610d09565b9350610d39818560208601610beb565b80840191505092915050565b6000610d518284610d14565b915081905092915050565b7f5265667567656520616c72656164792072656769737465726564000000000000600082015250565b6000610d92601a83610bda565b9150610d9d82610d5c565b602082019050919050565b60006020820190508181036000830152610dc181610d85565b9050919050565b7f49442063616e6e6f7420626520656d7074790000000000000000000000000000600082015250565b6000610dfe601283610bda565b9150610e0982610dc8565b602082019050919050565b60006020820190508181036000830152610e2d81610df1565b9050919050565b7f4e616d652063616e6e6f7420626520656d707479000000000000000000000000600082015250565b6000610e6a601483610bda565b9150610e7582610e34565b602082019050919050565b60006020820190508181036000830152610e9981610e5d565b9050919050565b7f436f756e747279206f66206f726967696e2063616e6e6f7420626520656d707460008201527f7900000000000000000000000000000000000000000000000000000000000000602082015250565b6000610efc602183610bda565b9150610f0782610ea0565b604082019050919050565b60006020820190508181036000830152610f2b81610eef565b9050919050565b7f496e76616c69642064617465206f662062697274680000000000000000000000600082015250565b6000610f68601583610bda565b9150610f7382610f32565b602082019050919050565b60006020820190508181036000830152610f9781610f5b565b9050919050565b7f4e487b7100000000000000000000000000000000000000000000000000000000600052602260045260246000fd5b60006002820490506001821680610fe557607f821691505b602082108103610ff857610ff7610f9e565b5b50919050565b60008190508160005260206000209050919050565b60006020601f8301049050919050565b600082821b905092915050565b6000600883026110607fffffffffffffffffffffffffffffffffffffffffffffffffffffffffffffffff82611023565b61106a8683611023565b95508019841693508086168417925050509392505050565b6000819050919050565b60006110a76110a261109d84610a39565b611082565b610a39565b9050919050565b6000819050919050565b6110c18361108c565b6110d56110cd826110ae565b848454611030565b825550505050565b600090565b6110ea6110dd565b6110f58184846110b8565b505050565b5b818110156111195761110e6000826110e2565b6001810190506110fb565b5050565b601f82111561115e5761112f81610ffe565b61113884611013565b81016020851015611147578190505b61115b61115385611013565b8301826110fa565b50505b505050565b600082821c905092915050565b600061118160001984600802611163565b1980831691505092915050565b600061119a8383611170565b9150826002028217905092915050565b6111b382610bcf565b67ffffffffffffffff8111156111cc576111cb61090e565b5b6111d68254610fcd565b6111e182828561111d565b600060209050601f8311600181146112145760008415611202578287015190505b61120c858261118e565b865550611274565b601f19841661122286610ffe565b60005b8281101561124a57848901518255600182019150602085019450602081019050611225565b868310156112675784890151611263601f891682611170565b8355505b6001600288020188555050505b505050505050565b600060608201905081810360008301526112968186610c15565b905081810360208301526112aa8185610c15565b90506112b96040830184610b5c565b949350505050565b7f52656675676565206e6f7420666f756e64000000000000000000000000000000600082015250565b60006112f7601183610bda565b9150611302826112c1565b602082019050919050565b60006020820190508181036000830152611326816112ea565b905091905056fea2646970667358221220aa302b274b887dae0ff9fa78804690e077cb98eb5ce6bfe2a32e721df88f86af64736f6c634300081b0033",
  "linkReferences": {},
  "deployedLinkReferences": {}
}