{
  "_format": "hh-sol-artifact-1",
  "contractName": "RefugeeIdentity",
  "sourceName": "contracts/RefugeeIdentity.sol",
  "abi": [
    {
      "inputs": [
        {
          "internalType": "address",
          "name": "initialOwner",
          "type": "address"
        }
      ],
      "stateMutability": "nonpayable",
      "type": "constructor"
    },
    {
      "inputs": [
        {
          "internalType": "address",
          "name": "owner",
          "type": "address"
        }
      ],
      "name": "OwnableInvalidOwner",
      "type": "error"
    },
    {
      "inputs": [
        {
          "internalType": "address",
          "name": "account",
          "type": "address"
        }
      ],
      "name": "OwnableUnauthorizedAccount",
      "type": "error"
    },
    {
      "anonymous": false,
      "inputs": [
        {
          "indexed": true,
          "internalType": "address",
          "name": "previousOwner",
          "type": "address"
        },
        {
          "indexed": true,
          "internalType": "address",
          "name": "newOwner",
          "type": "address"
        }
      ],
      "name": "OwnershipTransferred",
      "type": "event"
    },
    {
      "anonymous": false,
      "inputs": [
        {
          "indexed": false,
          "internalType": "string",
          "name": "id",
          "type": "string"
        },
        {
          "indexed": false,
          "internalType": "string",
          "name": "name",
          "type": "string"
        },
        {
          "indexed": false,
          "internalType": "address",
          "name": "registeredBy",
          "type": "address"
        }
      ],
      "name": "RefugeeRegistered",
      "type": "event"
    },
    {
      "anonymous": false,
      "inputs": [
        {
          "indexed": false,
          "internalType": "string",
          "name": "id",
          "type": "string"
        },
        {
          "indexed": false,
          "internalType": "string",
          "name": "name",
          "type": "string"
        },
        {
          "indexed": false,
          "internalType": "address",
          "name": "verifiedBy",
          "type": "address"
        }
      ],
      "name": "RefugeeVerified",
      "type": "event"
    },
    {
      "inputs": [
        {
          "internalType": "address",
          "name": "verifier",
          "type": "address"
        }
      ],
      "name": "addAuthorizedVerifier",
      "outputs": [],
      "stateMutability": "nonpayable",
      "type": "function"
    },
    {
      "inputs": [
        {
          "internalType": "address",
          "name": "",
          "type": "address"
        }
      ],
      "name": "authorizedVerifiers",
      "outputs": [
        {
          "internalType": "bool",
          "name": "",
          "type": "bool"
        }
      ],
      "stateMutability": "view",
      "type": "function"
    },
    {
      "inputs": [
        {
          "internalType": "string",
          "name": "_id",
          "type": "string"
        }
      ],
      "name": "getRefugee",
      "outputs": [
        {
          "internalType": "string",
          "name": "name",
          "type": "string"
        },
        {
          "internalType": "string",
          "name": "countryOfOrigin",
          "type": "string"
        },
        {
          "internalType": "uint256",
          "name": "dateOfBirth",
          "type": "uint256"
        },
        {
          "internalType": "bool",
          "name": "isVerified",
          "type": "bool"
        },
        {
          "internalType": "address",
          "name": "registeredBy",
          "type": "address"
        },
        {
          "internalType": "address",
          "name": "verifiedBy",
          "type": "address"
        }
      ],
      "stateMutability": "view",
      "type": "function"
    },
    {
      "inputs": [],
      "name": "owner",
      "outputs": [
        {
          "internalType": "address",
          "name": "",
          "type": "address"
        }
      ],
      "stateMutability": "view",
      "type": "function"
    },
    {
      "inputs": [
        {
          "internalType": "string",
          "name": "_id",
          "type": "string"
        },
        {
          "internalType": "string",
          "name": "_name",
          "type": "string"
        },
        {
          "internalType": "string",
          "name": "_countryOfOrigin",
          "type": "string"
        },
        {
          "internalType": "uint256",
          "name": "_dateOfBirth",
          "type": "uint256"
        }
      ],
      "name": "registerRefugee",
      "outputs": [],
      "stateMutability": "nonpayable",
      "type": "function"
    },
    {
      "inputs": [
        {
          "internalType": "address",
          "name": "verifier",
          "type": "address"
        }
      ],
      "name": "removeAuthorizedVerifier",
      "outputs": [],
      "stateMutability": "nonpayable",
      "type": "function"
    },
    {
      "inputs": [],
      "name": "renounceOwnership",
      "outputs": [],
      "stateMutability": "nonpayable",
      "type": "function"
    },
    {
      "inputs": [
        {
          "internalType": "address",
          "name": "newOwner",
          "type": "address"
        }
      ],
      "name": "transferOwnership",
      "outputs": [],
      "stateMutability": "nonpayable",
      "type": "function"
    },
    {
      "inputs": [
        {
          "internalType": "string",
          "name": "_id",
          "type": "string"
        }
      ],
      "name": "verifyRefugee",
      "outputs": [],
      "stateMutability": "nonpayable",
      "type": "function"
    }
  ],
  "bytecode": "0x608060405234801561001057600080fd5b50604051611d25380380611d25833981810160405281019061003291906101e2565b80600073ffffffffffffffffffffffffffffffffffffffff168173ffffffffffffffffffffffffffffffffffffffff16036100a55760006040517f1e4fbdf700000000000000000000000000000000000000000000000000000000815260040161009c919061021e565b60405180910390fd5b6100b4816100bb60201b60201c565b5050610239565b60008060009054906101000a900473ffffffffffffffffffffffffffffffffffffffff169050816000806101000a81548173ffffffffffffffffffffffffffffffffffffffff021916908373ffffffffffffffffffffffffffffffffffffffff1602179055508173ffffffffffffffffffffffffffffffffffffffff168173ffffffffffffffffffffffffffffffffffffffff167f8be0079c531659141344cd1fd0a4f28419497f9722a3daafe3b4186f6b6457e060405160405180910390a35050565b600080fd5b600073ffffffffffffffffffffffffffffffffffffffff82169050919050565b60006101af82610184565b9050919050565b6101bf816101a4565b81146101ca57600080fd5b50565b6000815190506101dc816101b6565b92915050565b6000602082840312156101f8576101f761017f565b5b6000610206848285016101cd565b91505092915050565b610218816101a4565b82525050565b6000602082019050610233600083018461020f565b92915050565b611add806102486000396000f3fe608060405234801561001057600080fd5b50600436106100935760003560e01c80638da5cb5b116100665780638da5cb5b146100f65780639a89171614610114578063a65a2c3e14610144578063ad9f0ba414610160578063f2fde38b1461019557610093565b80636032caee146100985780636e607fa7146100b4578063715018a6146100d05780637fb4bb40146100da575b600080fd5b6100b260048036038101906100ad9190610f54565b6101b1565b005b6100ce60048036038101906100c99190610ffb565b610411565b005b6100d8610474565b005b6100f460048036038101906100ef919061105e565b610488565b005b6100fe6107fa565b60405161010b9190611128565b60405180910390f35b61012e60048036038101906101299190610ffb565b610823565b60405161013b919061115e565b60405180910390f35b61015e60048036038101906101599190610ffb565b610843565b005b61017a60048036038101906101759190610f54565b6108a6565b60405161018c96959493929190611207565b60405180910390f35b6101af60048036038101906101aa9190610ffb565b610c21565b005b600260003373ffffffffffffffffffffffffffffffffffffffff1673ffffffffffffffffffffffffffffffffffffffff16815260200190815260200160002060009054906101000a900460ff1661023d576040517f08c379a0000000000000000000000000000000000000000000000000000000008152600401610234906112c2565b60405180910390fd5b60018160405161024d919061131e565b908152602001604051809103902060040160009054906101000a900460ff166102ab576040517f08c379a00000000000000000000000000000000000000000000000000000000081526004016102a290611381565b60405180910390fd5b6001816040516102bb919061131e565b908152602001604051809103902060040160019054906101000a900460ff161561031a576040517f08c379a0000000000000000000000000000000000000000000000000000000008152600401610311906113ed565b60405180910390fd5b6001808260405161032b919061131e565b908152602001604051809103902060040160016101000a81548160ff02191690831515021790555033600182604051610364919061131e565b908152602001604051809103902060050160006101000a81548173ffffffffffffffffffffffffffffffffffffffff021916908373ffffffffffffffffffffffffffffffffffffffff1602179055507fe7c25aca24a444c38ec5aaeb77c08ca32e509a730d23967d5d28cb7825ef0ad0816001836040516103e5919061131e565b90815260200160405180910390206001013360405161040693929190611506565b60405180910390a150565b610419610ca7565b6001600260008373ffffffffffffffffffffffffffffffffffffffff1673ffffffffffffffffffffffffffffffffffffffff16815260200190815260200160002060006101000a81548160ff02191690831515021790555050565b61047c610ca7565b6104866000610d2e565b565b600184604051610498919061131e565b908152602001604051809103902060040160009054906101000a900460ff16156104f7576040517f08c379a00000000000000000000000000000000000000000000000000000000081526004016104ee90611597565b60405180910390fd5b600084511161053b576040517f08c379a000000000000000000000000000000000000000000000000000000000815260040161053290611603565b60405180910390fd5b600083511161057f576040517f08c379a00000000000000000000000000000000000000000000000000000000081526004016105769061166f565b60405180910390fd5b60008251116105c3576040517f08c379a00000000000000000000000000000000000000000000000000000000081526004016105ba90611701565b60405180910390fd5b6000811180156105d257504281105b610611576040517f08c379a00000000000000000000000000000000000000000000000000000000081526004016106089061176d565b60405180910390fd5b6040518061010001604052808581526020018481526020018381526020018281526020016001151581526020016000151581526020013373ffffffffffffffffffffffffffffffffffffffff168152602001600073ffffffffffffffffffffffffffffffffffffffff1681525060018560405161068e919061131e565b908152602001604051809103902060008201518160000190816106b19190611924565b5060208201518160010190816106c79190611924565b5060408201518160020190816106dd9190611924565b506060820151816003015560808201518160040160006101000a81548160ff02191690831515021790555060a08201518160040160016101000a81548160ff02191690831515021790555060c08201518160040160026101000a81548173ffffffffffffffffffffffffffffffffffffffff021916908373ffffffffffffffffffffffffffffffffffffffff16021790555060e08201518160050160006101000a81548173ffffffffffffffffffffffffffffffffffffffff021916908373ffffffffffffffffffffffffffffffffffffffff1602179055509050507f35ee7356f1c33a6addafe7f64a57427373e7db1c7f22f19f8e7c111f6a38c98e8484336040516107ec939291906119f6565b60405180910390a150505050565b60008060009054906101000a900473ffffffffffffffffffffffffffffffffffffffff16905090565b60026020528060005260406000206000915054906101000a900460ff1681565b61084b610ca7565b6000600260008373ffffffffffffffffffffffffffffffffffffffff1673ffffffffffffffffffffffffffffffffffffffff16815260200190815260200160002060006101000a81548160ff02191690831515021790555050565b6060806000806000806001876040516108bf919061131e565b908152602001604051809103902060040160009054906101000a900460ff1661091d576040517f08c379a000000000000000000000000000000000000000000000000000000000815260040161091490611a87565b60405180910390fd5b600060018860405161092f919061131e565b9081526020016040518091039020604051806101000160405290816000820180546109599061143c565b80601f01602080910402602001604051908101604052809291908181526020018280546109859061143c565b80156109d25780601f106109a7576101008083540402835291602001916109d2565b820191906000526020600020905b8154815290600101906020018083116109b557829003601f168201915b505050505081526020016001820180546109eb9061143c565b80601f0160208091040260200160405190810160405280929190818152602001828054610a179061143c565b8015610a645780601f10610a3957610100808354040283529160200191610a64565b820191906000526020600020905b815481529060010190602001808311610a4757829003601f168201915b50505050508152602001600282018054610a7d9061143c565b80601f0160208091040260200160405190810160405280929190818152602001828054610aa99061143c565b8015610af65780601f10610acb57610100808354040283529160200191610af6565b820191906000526020600020905b815481529060010190602001808311610ad957829003601f168201915b50505050508152602001600382015481526020016004820160009054906101000a900460ff161515151581526020016004820160019054906101000a900460ff161515151581526020016004820160029054906101000a900473ffffffffffffffffffffffffffffffffffffffff1673ffffffffffffffffffffffffffffffffffffffff1673ffffffffffffffffffffffffffffffffffffffff1681526020016005820160009054906101000a900473ffffffffffffffffffffffffffffffffffffffff1673ffffffffffffffffffffffffffffffffffffffff1673ffffffffffffffffffffffffffffffffffffffff168152505090508060200151816040015182606001518360a001518460c001518560e001519650965096509650965096505091939550919395565b610c29610ca7565b600073ffffffffffffffffffffffffffffffffffffffff168173ffffffffffffffffffffffffffffffffffffffff1603610c9b5760006040517f1e4fbdf7000000000000000000000000000000000000000000000000000000008152600401610c929190611128565b60405180910390fd5b610ca481610d2e565b50565b610caf610df2565b73ffffffffffffffffffffffffffffffffffffffff16610ccd6107fa565b73ffffffffffffffffffffffffffffffffffffffff1614610d2c57610cf0610df2565b6040517f118cdaa7000000000000000000000000000000000000000000000000000000008152600401610d239190611128565b60405180910390fd5b565b60008060009054906101000a900473ffffffffffffffffffffffffffffffffffffffff169050816000806101000a81548173ffffffffffffffffffffffffffffffffffffffff021916908373ffffffffffffffffffffffffffffffffffffffff1602179055508173ffffffffffffffffffffffffffffffffffffffff168173ffffffffffffffffffffffffffffffffffffffff167f8be0079c531659141344cd1fd0a4f28419497f9722a3daafe3b4186f6b6457e060405160405180910390a35050565b600033905090565b6000604051905090565b600080fd5b600080fd5b600080fd5b600080fd5b6000601f19601f8301169050919050565b7f4e487b7100000000000000000000000000000000000000000000000000000000600052604160045260246000fd5b610e6182610e18565b810181811067ffffffffffffffff82111715610e8057610e7f610e29565b5b80604052505050565b6000610e93610dfa565b9050610e9f8282610e58565b919050565b600067ffffffffffffffff821115610ebf57610ebe610e29565b5b610ec882610e18565b9050602081019050919050565b82818337600083830152505050565b6000610ef7610ef284610ea4565b610e89565b905082815260208101848484011115610f1357610f12610e13565b5b610f1e848285610ed5565b509392505050565b600082601f830112610f3b57610f3a610e0e565b5b8135610f4b848260208601610ee4565b91505092915050565b600060208284031215610f6a57610f69610e04565b5b600082013567ffffffffffffffff811115610f8857610f87610e09565b5b610f9484828501610f26565b91505092915050565b600073ffffffffffffffffffffffffffffffffffffffff82169050919050565b6000610fc882610f9d565b9050919050565b610fd881610fbd565b8114610fe357600080fd5b50565b600081359050610ff581610fcf565b92915050565b60006020828403121561101157611010610e04565b5b600061101f84828501610fe6565b91505092915050565b6000819050919050565b61103b81611028565b811461104657600080fd5b50565b60008135905061105881611032565b92915050565b6000806000806080858703121561107857611077610e04565b5b600085013567ffffffffffffffff81111561109657611095610e09565b5b6110a287828801610f26565b945050602085013567ffffffffffffffff8111156110c3576110c2610e09565b5b6110cf87828801610f26565b935050604085013567ffffffffffffffff8111156110f0576110ef610e09565b5b6110fc87828801610f26565b925050606061110d87828801611049565b91505092959194509250565b61112281610fbd565b82525050565b600060208201905061113d6000830184611119565b92915050565b60008115159050919050565b61115881611143565b82525050565b6000602082019050611173600083018461114f565b92915050565b600081519050919050565b600082825260208201905092915050565b60005b838110156111b3578082015181840152602081019050611198565b60008484015250505050565b60006111ca82611179565b6111d48185611184565b93506111e4818560208601611195565b6111ed81610e18565b840191505092915050565b61120181611028565b82525050565b600060c082019050818103600083015261122181896111bf565b9050818103602083015261123581886111bf565b905061124460408301876111f8565b611251606083018661114f565b61125e6080830185611119565b61126b60a0830184611119565b979650505050505050565b7f4e6f7420616e20617574686f72697a6564207665726966696572000000000000600082015250565b60006112ac601a83611184565b91506112b782611276565b602082019050919050565b600060208201905081810360008301526112db8161129f565b9050919050565b600081905092915050565b60006112f882611179565b61130281856112e2565b9350611312818560208601611195565b80840191505092915050565b600061132a82846112ed565b915081905092915050565b7f52656675676565206e6f74207265676973746572656400000000000000000000600082015250565b600061136b601683611184565b915061137682611335565b602082019050919050565b6000602082019050818103600083015261139a8161135e565b9050919050565b7f5265667567656520616c72656164792076657269666965640000000000000000600082015250565b60006113d7601883611184565b91506113e2826113a1565b602082019050919050565b60006020820190508181036000830152611406816113ca565b9050919050565b7f4e487b7100000000000000000000000000000000000000000000000000000000600052602260045260246000fd5b6000600282049050600182168061145457607f821691505b6020821081036114675761146661140d565b5b50919050565b60008190508160005260206000209050919050565b6000815461148f8161143c565b6114998186611184565b945060018216600081146114b457600181146114ca576114fd565b60ff1983168652811515602002860193506114fd565b6114d38561146d565b60005b838110156114f5578154818901526001820191506020810190506114d6565b808801955050505b50505092915050565b6000606082019050818103600083015261152081866111bf565b905081810360208301526115348185611482565b90506115436040830184611119565b949350505050565b7f5265667567656520616c72656164792072656769737465726564000000000000600082015250565b6000611581601a83611184565b915061158c8261154b565b602082019050919050565b600060208201905081810360008301526115b081611574565b9050919050565b7f49442063616e6e6f7420626520656d7074790000000000000000000000000000600082015250565b60006115ed601283611184565b91506115f8826115b7565b602082019050919050565b6000602082019050818103600083015261161c816115e0565b9050919050565b7f4e616d652063616e6e6f7420626520656d707479000000000000000000000000600082015250565b6000611659601483611184565b915061166482611623565b602082019050919050565b600060208201905081810360008301526116888161164c565b9050919050565b7f436f756e747279206f66206f726967696e2063616e6e6f7420626520656d707460008201527f7900000000000000000000000000000000000000000000000000000000000000602082015250565b60006116eb602183611184565b91506116f68261168f565b604082019050919050565b6000602082019050818103600083015261171a816116de565b9050919050565b7f496e76616c69642064617465206f662062697274680000000000000000000000600082015250565b6000611757601583611184565b915061176282611721565b602082019050919050565b600060208201905081810360008301526117868161174a565b9050919050565b60006020601f8301049050919050565b600082821b905092915050565b6000600883026117da7fffffffffffffffffffffffffffffffffffffffffffffffffffffffffffffffff8261179d565b6117e4868361179d565b95508019841693508086168417925050509392505050565b6000819050919050565b600061182161181c61181784611028565b6117fc565b611028565b9050919050565b6000819050919050565b61183b83611806565b61184f61184782611828565b8484546117aa565b825550505050565b600090565b611864611857565b61186f818484611832565b505050565b5b818110156118935761188860008261185c565b600181019050611875565b5050565b601f8211156118d8576118a98161146d565b6118b28461178d565b810160208510156118c1578190505b6118d56118cd8561178d565b830182611874565b50505b505050565b600082821c905092915050565b60006118fb600019846008026118dd565b1980831691505092915050565b600061191483836118ea565b9150826002028217905092915050565b61192d82611179565b67ffffffffffffffff81111561194657611945610e29565b5b611950825461143c565b61195b828285611897565b600060209050601f83116001811461198e576000841561197c578287015190505b6119868582611908565b8655506119ee565b601f19841661199c8661146d565b60005b828110156119c45784890151825560018201915060208501945060208101905061199f565b868310156119e157848901516119dd601f8916826118ea565b8355505b6001600288020188555050505b505050505050565b60006060820190508181036000830152611a1081866111bf565b90508181036020830152611a2481856111bf565b9050611a336040830184611119565b949350505050565b7f52656675676565206e6f7420666f756e64000000000000000000000000000000600082015250565b6000611a71601183611184565b9150611a7c82611a3b565b602082019050919050565b60006020820190508181036000830152611aa081611a64565b905091905056fea26469706673582212209eeec10880678f17e08410451f911f1ca90b8c7c76ed02a94a9ce4e3d3c1c83d64736f6c634300081b0033",
  "linkReferences": {},
  "deployedLinkReferences": {}
}