{
    "_format": "hh-sol-artifact-1",
    "contractName": "SkillVerification",
    "sourceName": "contracts/SkillVerification.sol",
    "abi": [
        {
            "inputs": [
                {
                    "internalType": "address",
                    "name": "initialOwner",
                    "type": "address"
                }
            ],
            "stateMutability": "nonpayable",
            "type": "constructor"
        },
        {
            "inputs": [
                {
                    "internalType": "address",
                    "name": "owner",
                    "type": "address"
                }
            ],
            "name": "OwnableInvalidOwner",
            "type": "error"
        },
        {
            "inputs": [
                {
                    "internalType": "address",
                    "name": "account",
                    "type": "address"
                }
            ],
            "name": "OwnableUnauthorizedAccount",
            "type": "error"
        },
        {
            "anonymous": false,
            "inputs": [
                {
                    "indexed": true,
                    "internalType": "address",
                    "name": "previousOwner",
                    "type": "address"
                },
                {
                    "indexed": true,
                    "internalType": "address",
                    "name": "newOwner",
                    "type": "address"
                }
            ],
            "name": "OwnershipTransferred",
            "type": "event"
        },
        {
            "anonymous": false,
            "inputs": [
                {
                    "indexed": true,
                    "internalType": "address",
                    "name": "user",
                    "type": "address"
                },
                {
                    "indexed": false,
                    "internalType": "string",
                    "name": "skill",
                    "type": "string"
                },
                {
                    "indexed": false,
                    "internalType": "address",
                    "name": "verifier",
                    "type": "address"
                }
            ],
            "name": "SkillVerified",
            "type": "event"
        },
        {
            "inputs": [
                {
                    "internalType": "address",
                    "name": "user",
                    "type": "address"
                }
            ],
            "name": "getUserSkillCount",
            "outputs": [
                {
                    "internalType": "uint256",
                    "name": "",
                    "type": "uint256"
                }
            ],
            "stateMutability": "view",
            "type": "function"
        },
        {
            "inputs": [
                {
                    "internalType": "address",
                    "name": "user",
                    "type": "address"
                }
            ],
            "name": "getVerifiedSkills",
            "outputs": [
                {
                    "internalType": "string[]",
                    "name": "",
                    "type": "string[]"
                }
            ],
            "stateMutability": "view",
            "type": "function"
        },
        {
            "inputs": [],
            "name": "owner",
            "outputs": [
                {
                    "internalType": "address",
                    "name": "",
                    "type": "address"
                }
            ],
            "stateMutability": "view",
            "type": "function"
        },
        {
            "inputs": [],
            "name": "renounceOwnership",
            "outputs": [],
            "stateMutability": "nonpayable",
            "type": "function"
        },
        {
            "inputs": [
                {
                    "internalType": "uint256",
                    "name": "newFee",
                    "type": "uint256"
                }
            ],
            "name": "setVerificationFee",
            "outputs": [],
            "stateMutability": "nonpayable",
            "type": "function"
        },
        {
            "inputs": [
                {
                    "internalType": "address",
                    "name": "newOwner",
                    "type": "address"
                }
            ],
            "name": "transferOwnership",
            "outputs": [],
            "stateMutability": "nonpayable",
            "type": "function"
        },
        {
            "inputs": [
                {
                    "internalType": "address",
                    "name": "",
                    "type": "address"
                },
                {
                    "internalType": "string",
                    "name": "",
                    "type": "string"
                }
            ],
            "name": "userSkills",
            "outputs": [
                {
                    "internalType": "string",
                    "name": "name",
                    "type": "string"
                },
                {
                    "internalType": "address",
                    "name": "verifier",
                    "type": "address"
                },
                {
                    "internalType": "uint256",
                    "name": "timestamp",
                    "type": "uint256"
                },
                {
                    "internalType": "bool",
                    "name": "isVerified",
                    "type": "bool"
                }
            ],
            "stateMutability": "view",
            "type": "function"
        },
        {
            "inputs": [],
            "name": "verificationFee",
            "outputs": [
                {
                    "internalType": "uint256",
                    "name": "",
                    "type": "uint256"
                }
            ],
            "stateMutability": "view",
            "type": "function"
        },
        {
            "inputs": [
                {
                    "internalType": "address",
                    "name": "user",
                    "type": "address"
                },
                {
                    "internalType": "string",
                    "name": "skillName",
                    "type": "string"
                }
            ],
            "name": "verifySkill",
            "outputs": [],
            "stateMutability": "payable",
            "type": "function"
        },
        {
            "inputs": [],
            "name": "withdrawFees",
            "outputs": [],
            "stateMutability": "nonpayable",
            "type": "function"
        }
    ],
    "bytecode": "0x608060405266038d7ea4c6800060035534801561001b57600080fd5b5060405161184c38038061184c833981810160405281019061003d91906101ed565b80600073ffffffffffffffffffffffffffffffffffffffff168173ffffffffffffffffffffffffffffffffffffffff16036100b05760006040517f1e4fbdf70000000000000000000000000000000000000000000000000000000081526004016100a79190610229565b60405180910390fd5b6100bf816100c660201b60201c565b5050610244565b60008060009054906101000a900473ffffffffffffffffffffffffffffffffffffffff169050816000806101000a81548173ffffffffffffffffffffffffffffffffffffffff021916908373ffffffffffffffffffffffffffffffffffffffff1602179055508173ffffffffffffffffffffffffffffffffffffffff168173ffffffffffffffffffffffffffffffffffffffff167f8be0079c531659141344cd1fd0a4f28419497f9722a3daafe3b4186f6b6457e060405160405180910390a35050565b600080fd5b600073ffffffffffffffffffffffffffffffffffffffff82169050919050565b60006101ba8261018f565b9050919050565b6101ca816101af565b81146101d557600080fd5b50565b6000815190506101e7816101c1565b92915050565b6000602082840312156102035761020261018a565b5b6000610211848285016101d8565b91505092915050565b610223816101af565b82525050565b600060208201905061023e600083018461021a565b92915050565b6115f9806102536000396000f3fe6080604052600436106100915760003560e01c80638da5cb5b116100595780638da5cb5b1461015d578063a8c278a214610188578063aae9d5f2146101b3578063e4801937146101dc578063f2fde38b1461021957610091565b80630a563e391461009657806333b122f3146100d6578063476343ee146101135780635cad3d5f1461012a578063715018a614610146575b600080fd5b3480156100a257600080fd5b506100bd60048036038101906100b89190610ce1565b610242565b6040516100cd9493929190610dff565b60405180910390f35b3480156100e257600080fd5b506100fd60048036038101906100f89190610e4b565b61034a565b60405161010a9190610e78565b60405180910390f35b34801561011f57600080fd5b50610128610396565b005b610144600480360381019061013f9190610ce1565b6103ee565b005b34801561015257600080fd5b5061015b6107e3565b005b34801561016957600080fd5b506101726107f7565b60405161017f9190610e93565b60405180910390f35b34801561019457600080fd5b5061019d610820565b6040516101aa9190610e78565b60405180910390f35b3480156101bf57600080fd5b506101da60048036038101906101d59190610eda565b610826565b005b3480156101e857600080fd5b5061020360048036038101906101fe9190610e4b565b610838565b6040516102109190611013565b60405180910390f35b34801561022557600080fd5b50610240600480360381019061023b9190610e4b565b610950565b005b6001602052816000526040600020818051602081018201805184825260208301602085012081835280955050505050506000915091505080600001805461028890611064565b80601f01602080910402602001604051908101604052809291908181526020018280546102b490611064565b80156103015780601f106102d657610100808354040283529160200191610301565b820191906000526020600020905b8154815290600101906020018083116102e457829003601f168201915b5050505050908060010160009054906101000a900473ffffffffffffffffffffffffffffffffffffffff16908060020154908060030160009054906101000a900460ff16905084565b6000600260008373ffffffffffffffffffffffffffffffffffffffff1673ffffffffffffffffffffffffffffffffffffffff168152602001908152602001600020805490509050919050565b61039e6109d6565b6103a66107f7565b73ffffffffffffffffffffffffffffffffffffffff166108fc479081150290604051600060405180830381858888f193505050501580156103eb573d6000803e3d6000fd5b50565b600354341015610433576040517f08c379a000000000000000000000000000000000000000000000000000000000815260040161042a906110e1565b60405180910390fd5b3373ffffffffffffffffffffffffffffffffffffffff168273ffffffffffffffffffffffffffffffffffffffff16036104a1576040517f08c379a00000000000000000000000000000000000000000000000000000000081526004016104989061114d565b60405180910390fd5b600160008373ffffffffffffffffffffffffffffffffffffffff1673ffffffffffffffffffffffffffffffffffffffff168152602001908152602001600020816040516104ee91906111a9565b908152602001604051809103902060030160009054906101000a900460ff161561054d576040517f08c379a00000000000000000000000000000000000000000000000000000000081526004016105449061120c565b60405180910390fd5b6000600260008473ffffffffffffffffffffffffffffffffffffffff1673ffffffffffffffffffffffffffffffffffffffff16815260200190815260200160002090506000805b82805490508110156105f55783805190602001208382815481106105bb576105ba61122c565b5b906000526020600020016040516105d291906112fe565b6040518091039020036105e857600191506105f5565b8080600101915050610594565b508061066e57600260008573ffffffffffffffffffffffffffffffffffffffff1673ffffffffffffffffffffffffffffffffffffffff1681526020019081526020016000208390806001815401808255809150506001900390600052602060002001600090919091909150908161066c91906114c1565b505b60405180608001604052808481526020013373ffffffffffffffffffffffffffffffffffffffff16815260200142815260200160011515815250600160008673ffffffffffffffffffffffffffffffffffffffff1673ffffffffffffffffffffffffffffffffffffffff168152602001908152602001600020846040516106f591906111a9565b9081526020016040518091039020600082015181600001908161071891906114c1565b5060208201518160010160006101000a81548173ffffffffffffffffffffffffffffffffffffffff021916908373ffffffffffffffffffffffffffffffffffffffff1602179055506040820151816002015560608201518160030160006101000a81548160ff0219169083151502179055509050508373ffffffffffffffffffffffffffffffffffffffff167f4e9a93dc85c66ebb64671f4ce09853f7db3910945803ca57263641de1e52813a84336040516107d5929190611593565b60405180910390a250505050565b6107eb6109d6565b6107f56000610a5d565b565b60008060009054906101000a900473ffffffffffffffffffffffffffffffffffffffff16905090565b60035481565b61082e6109d6565b8060038190555050565b6060600260008373ffffffffffffffffffffffffffffffffffffffff1673ffffffffffffffffffffffffffffffffffffffff168152602001908152602001600020805480602002602001604051908101604052809291908181526020016000905b828210156109455783829060005260206000200180546108b890611064565b80601f01602080910402602001604051908101604052809291908181526020018280546108e490611064565b80156109315780601f1061090657610100808354040283529160200191610931565b820191906000526020600020905b81548152906001019060200180831161091457829003601f168201915b505050505081526020019060010190610899565b505050509050919050565b6109586109d6565b600073ffffffffffffffffffffffffffffffffffffffff168173ffffffffffffffffffffffffffffffffffffffff16036109ca5760006040517f1e4fbdf70000000000000000000000000000000000000000000000000000000081526004016109c19190610e93565b60405180910390fd5b6109d381610a5d565b50565b6109de610b21565b73ffffffffffffffffffffffffffffffffffffffff166109fc6107f7565b73ffffffffffffffffffffffffffffffffffffffff1614610a5b57610a1f610b21565b6040517f118cdaa7000000000000000000000000000000000000000000000000000000008152600401610a529190610e93565b60405180910390fd5b565b60008060009054906101000a900473ffffffffffffffffffffffffffffffffffffffff169050816000806101000a81548173ffffffffffffffffffffffffffffffffffffffff021916908373ffffffffffffffffffffffffffffffffffffffff1602179055508173ffffffffffffffffffffffffffffffffffffffff168173ffffffffffffffffffffffffffffffffffffffff167f8be0079c531659141344cd1fd0a4f28419497f9722a3daafe3b4186f6b6457e060405160405180910390a35050565b600033905090565b6000604051905090565b600080fd5b600080fd5b600073ffffffffffffffffffffffffffffffffffffffff82169050919050565b6000610b6882610b3d565b9050919050565b610b7881610b5d565b8114610b8357600080fd5b50565b600081359050610b9581610b6f565b92915050565b600080fd5b600080fd5b6000601f19601f8301169050919050565b7f4e487b7100000000000000000000000000000000000000000000000000000000600052604160045260246000fd5b610bee82610ba5565b810181811067ffffffffffffffff82111715610c0d57610c0c610bb6565b5b80604052505050565b6000610c20610b29565b9050610c2c8282610be5565b919050565b600067ffffffffffffffff821115610c4c57610c4b610bb6565b5b610c5582610ba5565b9050602081019050919050565b82818337600083830152505050565b6000610c84610c7f84610c31565b610c16565b905082815260208101848484011115610ca057610c9f610ba0565b5b610cab848285610c62565b509392505050565b600082601f830112610cc857610cc7610b9b565b5b8135610cd8848260208601610c71565b91505092915050565b60008060408385031215610cf857610cf7610b33565b5b6000610d0685828601610b86565b925050602083013567ffffffffffffffff811115610d2757610d26610b38565b5b610d3385828601610cb3565b9150509250929050565b600081519050919050565b600082825260208201905092915050565b60005b83811015610d77578082015181840152602081019050610d5c565b60008484015250505050565b6000610d8e82610d3d565b610d988185610d48565b9350610da8818560208601610d59565b610db181610ba5565b840191505092915050565b610dc581610b5d565b82525050565b6000819050919050565b610dde81610dcb565b82525050565b60008115159050919050565b610df981610de4565b82525050565b60006080820190508181036000830152610e198187610d83565b9050610e286020830186610dbc565b610e356040830185610dd5565b610e426060830184610df0565b95945050505050565b600060208284031215610e6157610e60610b33565b5b6000610e6f84828501610b86565b91505092915050565b6000602082019050610e8d6000830184610dd5565b92915050565b6000602082019050610ea86000830184610dbc565b92915050565b610eb781610dcb565b8114610ec257600080fd5b50565b600081359050610ed481610eae565b92915050565b600060208284031215610ef057610eef610b33565b5b6000610efe84828501610ec5565b91505092915050565b600081519050919050565b600082825260208201905092915050565b6000819050602082019050919050565b600082825260208201905092915050565b6000610f4f82610d3d565b610f598185610f33565b9350610f69818560208601610d59565b610f7281610ba5565b840191505092915050565b6000610f898383610f44565b905092915050565b6000602082019050919050565b6000610fa982610f07565b610fb38185610f12565b935083602082028501610fc585610f23565b8060005b858110156110015784840389528151610fe28582610f7d565b9450610fed83610f91565b925060208a01995050600181019050610fc9565b50829750879550505050505092915050565b6000602082019050818103600083015261102d8184610f9e565b905092915050565b7f4e487b7100000000000000000000000000000000000000000000000000000000600052602260045260246000fd5b6000600282049050600182168061107c57607f821691505b60208210810361108f5761108e611035565b5b50919050565b7f496e73756666696369656e7420766572696669636174696f6e20666565000000600082015250565b60006110cb601d83610d48565b91506110d682611095565b602082019050919050565b600060208201905081810360008301526110fa816110be565b9050919050565b7f43616e6e6f7420766572696679206f776e20736b696c6c730000000000000000600082015250565b6000611137601883610d48565b915061114282611101565b602082019050919050565b600060208201905081810360008301526111668161112a565b9050919050565b600081905092915050565b600061118382610d3d565b61118d818561116d565b935061119d818560208601610d59565b80840191505092915050565b60006111b58284611178565b915081905092915050565b7f536b696c6c20616c726561647920766572696669656400000000000000000000600082015250565b60006111f6601683610d48565b9150611201826111c0565b602082019050919050565b60006020820190508181036000830152611225816111e9565b9050919050565b7f4e487b7100000000000000000000000000000000000000000000000000000000600052603260045260246000fd5b600081905092915050565b60008190508160005260206000209050919050565b6000815461128881611064565b611292818661125b565b945060018216600081146112ad57600181146112c2576112f5565b60ff19831686528115158202860193506112f5565b6112cb85611266565b60005b838110156112ed578154818901526001820191506020810190506112ce565b838801955050505b50505092915050565b600061130a828461127b565b915081905092915050565b60008190508160005260206000209050919050565b60006020601f8301049050919050565b600082821b905092915050565b6000600883026113777fffffffffffffffffffffffffffffffffffffffffffffffffffffffffffffffff8261133a565b611381868361133a565b95508019841693508086168417925050509392505050565b6000819050919050565b60006113be6113b96113b484610dcb565b611399565b610dcb565b9050919050565b6000819050919050565b6113d8836113a3565b6113ec6113e4826113c5565b848454611347565b825550505050565b600090565b6114016113f4565b61140c8184846113cf565b505050565b5b81811015611430576114256000826113f9565b600181019050611412565b5050565b601f8211156114755761144681611315565b61144f8461132a565b8101602085101561145e578190505b61147261146a8561132a565b830182611411565b50505b505050565b600082821c905092915050565b60006114986000198460080261147a565b1980831691505092915050565b60006114b18383611487565b9150826002028217905092915050565b6114ca82610d3d565b67ffffffffffffffff8111156114e3576114e2610bb6565b5b6114ed8254611064565b6114f8828285611434565b600060209050601f83116001811461152b5760008415611519578287015190505b61152385826114a5565b86555061158b565b601f19841661153986611315565b60005b828110156115615784890151825560018201915060208501945060208101905061153c565b8683101561157e578489015161157a601f891682611487565b8355505b6001600288020188555050505b505050505050565b600060408201905081810360008301526115ad8185610d83565b90506115bc6020830184610dbc565b939250505056fea2646970667358221220463f8f9f5078ff1ae26b46c828eba65d1375082d0686d89402b00c21c58894d964736f6c634300081b0033",
    "linkReferences": {},
    "deployedLinkReferences": {}
}